S011    42874    220120091  003001              FARELO DE SOJA PELLE                         5101511   2304009000000000000014400KGS9100000          00000000001310400                02000000000000000000000000000000000000000  020000000000000000000000000000000000000000000000000000000000000000000000000N99
S011    42878    290120091  003001              FARELO DE SOJA PELLE                         5101511   2304009000000000000014430KGS9100000          00000000001313130                02000000000000000000000000000000000000000  020000000000000000000000000000000000000000000000000000000000000000000000000N99
S011    42890    300120091  500001              PRODUTOS DIVERSOS                            555611    8479909000000000000001000UND480000           00000000000004800                02000000000000000000000000000000000000000  010180000000000000004800000000000000008640000000000000000000000000000000000N99
S011    42893    300120091  500001              PRODUTOS DIVERSOS                            694911    8479909000000000000001000UND500000           00000000000005000                02000000000000000000000000000000000000000  020000000000000000000000000000000000000000000000000000000000000000000000000N99
S011    42833    130120091  003001              FARELO DE SOJA PELLE                         51015651  2304009000000000000005500KGS8404600          00000000000462253                02000000000000000000000000000000000000000  020000000000000000000000000000000000000000000000000000000000000000000000000N99
S011    42846    160120091  003001              FARELO DE SOJA PELLE                         5101511   2304009000000000000010000KGS9000000          00000000000900000                02000000000000000000000000000000000000000  020000000000000000000000000000000000000000000000000000000000000000000000000N99
S011    42889    300120091  003001              FARELO DE SOJA PELLE                         5101511   2304009000000000000004000KGS9500000          00000000000380000                02000000000000000000000000000000000000000  020000000000000000000000000000000000000000000000000000000000000000000000000N99
S011    42906    310120091  002001              OLEO DE SOJA B. DEG.                         5101511   1507100000000000002077830KGS19500000         00000000405176850                02000000000000000000000000000000000000000  010180000000000405176850000000000486236530000000000000000000000000000000000N99
S011    42907    310120091  002001              OLEO DE SOJA B. DEG.                         5101511   1507100000000000000815000KGS19500000         00000000158925000                02000000000000000000000000000000000000000  010180000000000158925000000000000190719540000000000000000000000000000000000N99
S011    42872    220120091  003001              FARELO DE SOJA PELLE                         5101511   2304009000000000000016850KGS9400000          00000000001583900                02000000000000000000000000000000000000000  020000000000000000000000000000000000000000000000000000000000000000000000000N99
S011    42843    160120091  003001              FARELO DE SOJA PELLE                         5101511   2304009000000000000037000KGS9000000          00000000003330000                02000000000000000000000000000000000000000  020000000000000000000000000000000000000000000000000000000000000000000000000N99
S011    42832    130120091  500001              PRODUTOS DIVERSOS                            694911    8479909000000000000001000UND80000000         00000000000800000                02000000000000000000000000000000000000000  020000000000000000000000000000000000000000000000000000000000000000000000000N99
S011    42824    060120091  003001              FARELO DE SOJA PELLE                         5101511   2304009000000000000001500KGS7500000          00000000000112500                02000000000000000000000000000000000000000  020000000000000000000000000000000000000000000000000000000000000000000000000N99
S011    42888    300120091  003001              FARELO DE SOJA PELLE                         5101511   2304009000000000000001500KGS9600000          00000000000144000                02000000000000000000000000000000000000000  020000000000000000000000000000000000000000000000000000000000000000000000000N99
S011    42822    060120091  500001              PRODUTOS DIVERSOS                            691511    8479909000000000000001000UND900000000        00000000009000000                02000000000000000000000000000000000000000  020000000000000000000000000000000000000000000000000000000000000000000000000N99
S011    42825    080120091  500001              PRODUTOS DIVERSOS                            691511    8479909000000000000001000UND540000000        00000000005400000                02000000000000000000000000000000000000000  020000000000000000000000000000000000000000000000000000000000000000000000000N99
S011    42823    060120091  500001              PRODUTOS DIVERSOS                            691511    8479909000000000000001000UND16000000         00000000000160000                02000000000000000000000000000000000000000  020000000000000000000000000000000000000000000000000000000000000000000000000N99
S011    42883    300120091  001001              SOJA EM GRAOS                                5101511   1201009000000000000322667KGS500000           00000000001613333                02000000000000000000000000000000000000000  020000000000000000000000000000000000000000000000000000000000000000000000000N99
S011    42884    300120091  001001              SOJA EM GRAOS                                5101511   1201009000000000000510833KGS500000           00000000002554167                02000000000000000000000000000000000000000  020000000000000000000000000000000000000000000000000000000000000000000000000N99
S011    42885    300120091  001001              SOJA EM GRAOS                                5101511   1201009000000000000247000KGS500000           00000000001235000                02000000000000000000000000000000000000000  020000000000000000000000000000000000000000000000000000000000000000000000000N99
S011    42886    300120091  001001              SOJA EM GRAOS                                5101511   1201009000000000000317167KGS500000           00000000001585833                02000000000000000000000000000000000000000  020000000000000000000000000000000000000000000000000000000000000000000000000N99
S011    42887    300120091  001001              SOJA EM GRAOS                                5101511   1201009000000000000302667KGS500000           00000000001513333                02000000000000000000000000000000000000000  020000000000000000000000000000000000000000000000000000000000000000000000000N99
S011    42891    300120091  001001              SOJA EM GRAOS                                5101511   1201009000000000000321667KGS500000           00000000001608333                02000000000000000000000000000000000000000  020000000000000000000000000000000000000000000000000000000000000000000000000N99
S011    42892    300120091  001001              SOJA EM GRAOS                                5101511   1201009000000000000274333KGS500000           00000000001371667                02000000000000000000000000000000000000000  020000000000000000000000000000000000000000000000000000000000000000000000000N99
S011    42894    300120091  001001              SOJA EM GRAOS                                5101511   1201009000000000000316333KGS500000           00000000001581667                02000000000000000000000000000000000000000  020000000000000000000000000000000000000000000000000000000000000000000000000N99
S011    42895    300120091  001001              SOJA EM GRAOS                                5101511   1201009000000000000323667KGS500000           00000000001618333                02000000000000000000000000000000000000000  020000000000000000000000000000000000000000000000000000000000000000000000000N99
S011    42896    300120091  001001              SOJA EM GRAOS                                5101511   1201009000000000000291500KGS500000           00000000001457500                02000000000000000000000000000000000000000  020000000000000000000000000000000000000000000000000000000000000000000000000N99
S011    42897    310120091  001001              SOJA EM GRAOS                                5101511   1201009000000000000371667KGS500000           00000000001858333                02000000000000000000000000000000000000000  020000000000000000000000000000000000000000000000000000000000000000000000000N99
S011    42898    310120091  001001              SOJA EM GRAOS                                5101511   1201009000000000000333667KGS500000           00000000001668333                02000000000000000000000000000000000000000  020000000000000000000000000000000000000000000000000000000000000000000000000N99
S011    42899    310120091  001001              SOJA EM GRAOS                                5101511   1201009000000000000512833KGS500000           00000000002564167                02000000000000000000000000000000000000000  020000000000000000000000000000000000000000000000000000000000000000000000000N99
S011    42900    310120091  001001              SOJA EM GRAOS                                5101511   1201009000000000000324667KGS500000           00000000001623333                02000000000000000000000000000000000000000  020000000000000000000000000000000000000000000000000000000000000000000000000N99
S011    42901    310120091  001001              SOJA EM GRAOS                                5101511   1201009000000000000229333KGS500001           00000000001146668                02000000000000000000000000000000000000000  020000000000000000000000000000000000000000000000000000000000000000000000000N99
S011    42879    290120091  500001              PRODUTOS DIVERSOS                            591511    8479909000000000000001000UND400000000        00000000004000000                02000000000000000000000000000000000000000  020000000000000000000000000000000000000000000000000000000000000000000000000N99
S011    42807    020120091  003001              FARELO DE SOJA PELLE                         59025811  2304009000000000000033160KGS5300000          00000000001757480                02000000000000000000000000000000000000000  020000000000000000000000000000000000000000000000000000000000000000000000000N99
S011    42808    020120091  003001              FARELO DE SOJA PELLE                         59025811  2304009000000000000029100KGS5300000          00000000001542300                02000000000000000000000000000000000000000  020000000000000000000000000000000000000000000000000000000000000000000000000N99
S011    42809    020120091  003001              FARELO DE SOJA PELLE                         59025811  2304009000000000000031520KGS5300000          00000000001670560                02000000000000000000000000000000000000000  020000000000000000000000000000000000000000000000000000000000000000000000000N99
S011    42810    020120091  003001              FARELO DE SOJA PELLE                         59025811  2304009000000000000028080KGS5300000          00000000001488240                02000000000000000000000000000000000000000  020000000000000000000000000000000000000000000000000000000000000000000000000N99
S011    42811    020120091  003001              FARELO DE SOJA PELLE                         59025811  2304009000000000000030220KGS5300000          00000000001601660                02000000000000000000000000000000000000000  020000000000000000000000000000000000000000000000000000000000000000000000000N99
S011    42812    020120091  003001              FARELO DE SOJA PELLE                         59025811  2304009000000000000031060KGS5300000          00000000001646180                02000000000000000000000000000000000000000  020000000000000000000000000000000000000000000000000000000000000000000000000N99
S011    42813    020120091  003001              FARELO DE SOJA PELLE                         59025811  2304009000000000000029980KGS5300000          00000000001588940                02000000000000000000000000000000000000000  020000000000000000000000000000000000000000000000000000000000000000000000000N99
S011    42814    020120091  003001              FARELO DE SOJA PELLE                         59025811  2304009000000000000025450KGS5300000          00000000001348850                02000000000000000000000000000000000000000  020000000000000000000000000000000000000000000000000000000000000000000000000N99
S011    42815    020120091  003001              FARELO DE SOJA PELLE                         59025811  2304009000000000000032130KGS5300000          00000000001702890                02000000000000000000000000000000000000000  020000000000000000000000000000000000000000000000000000000000000000000000000N99
S011    42816    020120091  003001              FARELO DE SOJA PELLE                         59025811  2304009000000000000023170KGS5300000          00000000001228010                02000000000000000000000000000000000000000  020000000000000000000000000000000000000000000000000000000000000000000000000N99
S011    42817    050120091  003001              FARELO DE SOJA PELLE                         59025811  2304009000000000000030490KGS5300000          00000000001615970                02000000000000000000000000000000000000000  020000000000000000000000000000000000000000000000000000000000000000000000000N99
S011    42818    050120091  003001              FARELO DE SOJA PELLE                         59025811  2304009000000000000031160KGS5300000          00000000001651480                02000000000000000000000000000000000000000  020000000000000000000000000000000000000000000000000000000000000000000000000N99
S011    42819    050120091  003001              FARELO DE SOJA PELLE                         59025811  2304009000000000000030750KGS5300000          00000000001629750                02000000000000000000000000000000000000000  020000000000000000000000000000000000000000000000000000000000000000000000000N99
S011    42820    050120091  003001              FARELO DE SOJA PELLE                         59025811  2304009000000000000028180KGS5300000          00000000001493540                02000000000000000000000000000000000000000  020000000000000000000000000000000000000000000000000000000000000000000000000N99
S011    42821    050120091  003001              FARELO DE SOJA PELLE                         59025811  2304009000000000000027080KGS5300000          00000000001435240                02000000000000000000000000000000000000000  020000000000000000000000000000000000000000000000000000000000000000000000000N99
S011    42828    090120091  003001              FARELO DE SOJA PELLE                         59025811  2304009000000000000028960KGS5300000          00000000001534880                02000000000000000000000000000000000000000  020000000000000000000000000000000000000000000000000000000000000000000000000N99
S011    42829    090120091  003001              FARELO DE SOJA PELLE                         59025811  2304009000000000000029290KGS5300000          00000000001552370                02000000000000000000000000000000000000000  020000000000000000000000000000000000000000000000000000000000000000000000000N99
S011    42834    140120091  003001              FARELO DE SOJA PELLE                         59025811  2304009000000000000037870KGS5300000          00000000002007110                02000000000000000000000000000000000000000  020000000000000000000000000000000000000000000000000000000000000000000000000N99
S011    42835    140120091  003001              FARELO DE SOJA PELLE                         59025811  2304009000000000000037580KGS5300000          00000000001991740                02000000000000000000000000000000000000000  020000000000000000000000000000000000000000000000000000000000000000000000000N99
S011    42836    140120091  003001              FARELO DE SOJA PELLE                         59025811  2304009000000000000036460KGS5300000          00000000001932380                02000000000000000000000000000000000000000  020000000000000000000000000000000000000000000000000000000000000000000000000N99
S011    42837    140120091  003001              FARELO DE SOJA PELLE                         59025811  2304009000000000000026910KGS5300000          00000000001426230                02000000000000000000000000000000000000000  020000000000000000000000000000000000000000000000000000000000000000000000000N99
S011    42838    150120091  003001              FARELO DE SOJA PELLE                         59025811  2304009000000000000037620KGS5300000          00000000001993860                02000000000000000000000000000000000000000  020000000000000000000000000000000000000000000000000000000000000000000000000N99
S011    42839    150120091  003001              FARELO DE SOJA PELLE                         59025811  2304009000000000000026360KGS5300000          00000000001397080                02000000000000000000000000000000000000000  020000000000000000000000000000000000000000000000000000000000000000000000000N99
S011    42840    150120091  003001              FARELO DE SOJA PELLE                         59025811  2304009000000000000037210KGS5300000          00000000001972130                02000000000000000000000000000000000000000  020000000000000000000000000000000000000000000000000000000000000000000000000N99
S011    42844    160120091  003001              FARELO DE SOJA PELLE                         59025811  2304009000000000000027320KGS5300000          00000000001447960                02000000000000000000000000000000000000000  020000000000000000000000000000000000000000000000000000000000000000000000000N99
S011    42845    160120091  003001              FARELO DE SOJA PELLE                         59025811  2304009000000000000027480KGS5300000          00000000001456440                02000000000000000000000000000000000000000  020000000000000000000000000000000000000000000000000000000000000000000000000N99
S011    42847    160120091  003001              FARELO DE SOJA PELLE                         59025811  2304009000000000000037270KGS5300000          00000000001975310                02000000000000000000000000000000000000000  020000000000000000000000000000000000000000000000000000000000000000000000000N99
S011    42848    190120091  003001              FARELO DE SOJA PELLE                         59025811  2304009000000000000031320KGS5300000          00000000001659960                02000000000000000000000000000000000000000  020000000000000000000000000000000000000000000000000000000000000000000000000N99
S011    42849    190120091  003001              FARELO DE SOJA PELLE                         59025811  2304009000000000000028800KGS6000000          00000000001728000                02000000000000000000000000000000000000000  020000000000000000000000000000000000000000000000000000000000000000000000000N99
S011    42850    190120091  003001              FARELO DE SOJA PELLE                         59025811  2304009000000000000025370KGS5300000          00000000001344610                02000000000000000000000000000000000000000  020000000000000000000000000000000000000000000000000000000000000000000000000N99
S011    42851    190120091  003001              FARELO DE SOJA PELLE                         59025811  2304009000000000000029680KGS5300000          00000000001573040                02000000000000000000000000000000000000000  020000000000000000000000000000000000000000000000000000000000000000000000000N99
S011    42852    190120091  003001              FARELO DE SOJA PELLE                         59025811  2304009000000000000029690KGS5300000          00000000001573570                02000000000000000000000000000000000000000  020000000000000000000000000000000000000000000000000000000000000000000000000N99
S011    42853    190120091  003001              FARELO DE SOJA PELLE                         59025811  2304009000000000000028710KGS5300000          00000000001521630                02000000000000000000000000000000000000000  020000000000000000000000000000000000000000000000000000000000000000000000000N99
S011    42854    190120091  003001              FARELO DE SOJA PELLE                         59025811  2304009000000000000035190KGS5300000          00000000001865070                02000000000000000000000000000000000000000  020000000000000000000000000000000000000000000000000000000000000000000000000N99
S011    42855    190120091  003001              FARELO DE SOJA PELLE                         59025811  2304009000000000000037610KGS5300000          00000000001993330                02000000000000000000000000000000000000000  020000000000000000000000000000000000000000000000000000000000000000000000000N99
S011    42856    190120091  003001              FARELO DE SOJA PELLE                         59025811  2304009000000000000036000KGS5300000          00000000001908000                02000000000000000000000000000000000000000  020000000000000000000000000000000000000000000000000000000000000000000000000N99
S011    42859    190120091  003001              FARELO DE SOJA PELLE                         59025811  2304009000000000000036880KGS5300000          00000000001954640                02000000000000000000000000000000000000000  020000000000000000000000000000000000000000000000000000000000000000000000000N99
S011    42860    200120091  003001              FARELO DE SOJA PELLE                         59025811  2304009000000000000036100KGS5300000          00000000001913300                02000000000000000000000000000000000000000  020000000000000000000000000000000000000000000000000000000000000000000000000N99
S011    42861    200120091  003001              FARELO DE SOJA PELLE                         59025811  2304009000000000000027440KGS5300000          00000000001454320                02000000000000000000000000000000000000000  020000000000000000000000000000000000000000000000000000000000000000000000000N99
S011    42862    200120091  003001              FARELO DE SOJA PELLE                         59025811  2304009000000000000024990KGS5300000          00000000001324470                02000000000000000000000000000000000000000  020000000000000000000000000000000000000000000000000000000000000000000000000N99
S011    42863    200120091  003001              FARELO DE SOJA PELLE                         59025811  2304009000000000000030950KGS5300000          00000000001640350                02000000000000000000000000000000000000000  020000000000000000000000000000000000000000000000000000000000000000000000000N99
S011    42864    210120091  003001              FARELO DE SOJA PELLE                         59025811  2304009000000000000028060KGS5300000          00000000001487180                02000000000000000000000000000000000000000  020000000000000000000000000000000000000000000000000000000000000000000000000N99
S011    42865    210120091  003001              FARELO DE SOJA PELLE                         59025811  2304009000000000000028100KGS5300000          00000000001489300                02000000000000000000000000000000000000000  020000000000000000000000000000000000000000000000000000000000000000000000000N99
S011    42866    210120091  003001              FARELO DE SOJA PELLE                         59025811  2304009000000000000036780KGS5300000          00000000001949340                02000000000000000000000000000000000000000  020000000000000000000000000000000000000000000000000000000000000000000000000N99
S011    42867    210120091  003001              FARELO DE SOJA PELLE                         59025811  2304009000000000000036910KGS5300000          00000000001956230                02000000000000000000000000000000000000000  020000000000000000000000000000000000000000000000000000000000000000000000000N99
S011    42868    210120091  003001              FARELO DE SOJA PELLE                         59025811  2304009000000000000037020KGS5300000          00000000001962060                02000000000000000000000000000000000000000  020000000000000000000000000000000000000000000000000000000000000000000000000N99
S011    42869    210120091  003001              FARELO DE SOJA PELLE                         59025811  2304009000000000000030890KGS5300000          00000000001637170                02000000000000000000000000000000000000000  020000000000000000000000000000000000000000000000000000000000000000000000000N99
S011    42870    210120091  003001              FARELO DE SOJA PELLE                         59025811  2304009000000000000037250KGS5300000          00000000001974250                02000000000000000000000000000000000000000  020000000000000000000000000000000000000000000000000000000000000000000000000N99
S011    42871    210120091  003001              FARELO DE SOJA PELLE                         59025811  2304009000000000000037710KGS5300000          00000000001998630                02000000000000000000000000000000000000000  020000000000000000000000000000000000000000000000000000000000000000000000000N99
S011    42902    310120091  001001              SOJA EM GRAOS                                59035814  1201009000000000000000017KGS17587608000      00000000002931268                02000000000000000000000000000000000000000  020000000000000000000000000000000000000000000000000000000000000000000000000N99
S011    42857    190120091  003001              FARELO DE SOJA PELLE                         5101511   2304009000000000000010000KGS9000000          00000000000900000                02000000000000000000000000000000000000000  020000000000000000000000000000000000000000000000000000000000000000000000000N99
S011    42905    310120091  001001              SOJA EM GRAOS                                52015152  1201009000000000000002467KGS400014           00000000000009867                02000000000000000000000000000000000000000  020000000000000000000000000000000000000000000000000000000000000000000000000N99
S011    42904    310120091  001001              SOJA EM GRAOS                                52015152  1201009000000000000140233KGS400000           00000000000560933                02000000000000000000000000000000000000000  020000000000000000000000000000000000000000000000000000000000000000000000000N99
S011    42903    310120091  001001              SOJA EM GRAOS                                52015152  1201009000000000000220933KGS400000           00000000000883733                02000000000000000000000000000000000000000  020000000000000000000000000000000000000000000000000000000000000000000000000N99
S011    42877    280120091  002003              LECITINA                                     5101511   1507909000000000000009000KGS15000000         00000000001350000                02000000000000000000000000000000000000000  010180000000000001350000000000000001620080000000000000000000000000000000000N99
S011    42831    130120091  500001              PRODUTOS DIVERSOS                            591511    8479909000000000000001000UND150000000        00000000001500000                02000000000000000000000000000000000000000  020000000000000000000000000000000000000000000000000000000000000000000000000N99
S011    42826    080120091  002001              OLEO DE SOJA B. DEG.                         5116522   1507100000000000000009620KGS15000000         00000000001443000                02000000000000000000000000000000000000000  010180000000000001443000000000000001731690000000000000000000000000000000000N99
S011    42827    080120091  002001              OLEO DE SOJA B. DEG.                         5949561   1507100000000000000017600KGS15000000         00000000002640000                02000000000000000000000000000000000000000  010180000000000002640000000000000003168160000000000000000000000000000000000N99
S011    42830    090120091  002001              OLEO DE SOJA B. DEG.                         5949561   1507100000000000000027800KGS15000000         00000000004170000                02000000000000000000000000000000000000000  010180000000000004170000000000000007506000000000000000000000000000000000000N99
S011    42842    150120091  002001              OLEO DE SOJA B. DEG.                         5101511   1507100000000000000045400KGS15000000         00000000006810000                02000000000000000000000000000000000000000  010180000000000006810000000000000008172410000000000000000000000000000000000N99
S011    42875    230120091  002001              OLEO DE SOJA B. DEG.                         5101511   1507100000000000000009560KGS15000000         00000000001434000                02000000000000000000000000000000000000000  010180000000000001434000000000000001720800000000000000000000000000000000000N99
S011    42876    280120091  002001              OLEO DE SOJA B. DEG.                         5949561   1507100000000000000036160KGS15000000         00000000005424000                02000000000000000000000000000000000000000  010180000000000005424000000000000006509130000000000000000000000000000000000N99
S011    42880    290120091  002001              OLEO DE SOJA B. DEG.                         5949561   1507100000000000000035540KGS15000000         00000000005331000                02000000000000000000000000000000000000000  010180000000000005331000000000000006397520000000000000000000000000000000000N99
S011    42881    300120091  002001              OLEO DE SOJA B. DEG.                         5101511   1507100000000000000036160KGS15000000         00000000005424000                02000000000000000000000000000000000000000  010180000000000005424000000000000006509130000000000000000000000000000000000N99
S011    42882    300120091  002001              OLEO DE SOJA B. DEG.                         5101511   1507100000000000000035540KGS15000000         00000000005331000                02000000000000000000000000000000000000000  010180000000000005331000000000000006397520000000000000000000000000000000000N99
S011    42841    150120091  500001              PRODUTOS DIVERSOS                            694911    8479909000000000000001000UND1000000          00000000000010000                02000000000000000000000000000000000000000  020000000000000000000000000000000000000000000000000000000000000000000000000N99
S011    42873    220120091  500001              PRODUTOS DIVERSOS                            694911    8479909000000000000001000UND2000000          00000000000020000                02000000000000000000000000000000000000000  020000000000000000000000000000000000000000000000000000000000000000000000000N99
S011    42858    190120091  003001              FARELO DE SOJA PELLE                         5101511   2304009000000000000026890KGS9200000          00000000002473880                02000000000000000000000000000000000000000  020000000000000000000000000000000000000000000000000000000000000000000000000N99
